{"contracts/Notes.sol":{"Notes":{"abi":[{"anonymous":false,"inputs":[{"indexed":false,"internalType":"uint256","name":"id","type":"uint256"},{"indexed":false,"internalType":"string","name":"content","type":"string"}],"name":"NoteCreated","type":"event"},{"anonymous":false,"inputs":[{"indexed":false,"internalType":"uint256","name":"id","type":"uint256"}],"name":"NoteDeleted","type":"event"},{"anonymous":false,"inputs":[{"indexed":false,"internalType":"uint256","name":"id","type":"uint256"},{"indexed":false,"internalType":"string","name":"content","type":"string"}],"name":"NoteUpdated","type":"event"},{"inputs":[{"internalType":"string","name":"content","type":"string"}],"name":"create","outputs":[],"stateMutability":"nonpayable","type":"function"},{"inputs":[{"internalType":"uint256","name":"id","type":"uint256"}],"name":"deleteNote","outputs":[],"stateMutability":"nonpayable","type":"function"},{"inputs":[{"internalType":"uint256","name":"id","type":"uint256"}],"name":"read","outputs":[{"internalType":"string","name":"","type":"string"}],"stateMutability":"view","type":"function"},{"inputs":[{"internalType":"uint256","name":"id","type":"uint256"},{"internalType":"string","name":"content","type":"string"}],"name":"updateNote","outputs":[],"stateMutability":"nonpayable","type":"function"}],"evm":{"bytecode":{"linkReferences":{},"object":"608060405234801561001057600080fd5b50610e1a806100206000396000f3fe608060405234801561001057600080fd5b506004361061004c5760003560e01c806349781ef914610051578063b6a46b3b1461006d578063c47177f414610089578063ed2e5a97146100a5575b600080fd5b61006b60048036038101906100669190610827565b6100d5565b005b61008760048036038101906100829190610883565b610217565b005b6100a3600480360381019061009e91906108cc565b61030d565b005b6100bf60048036038101906100ba91906108cc565b610456565b6040516100cc9190610978565b60405180910390f35b6000600160003373ffffffffffffffffffffffffffffffffffffffff1673ffffffffffffffffffffffffffffffffffffffff168152602001908152602001600020905060005b81805490508110156101d7578382828154811061013b5761013a61099a565b5b906000526020600020906002020160000154036101c457828282815481106101665761016561099a565b5b906000526020600020906002020160010190816101839190610bd5565b507ff4a9990466472e087350221001dbdf2f5f11c2bcb1019e44fc8449ff3999eb9484846040516101b5929190610cb6565b60405180910390a15050610213565b80806101cf90610d15565b91505061011b565b506040517f08c379a000000000000000000000000000000000000000000000000000000000815260040161020a90610da9565b60405180910390fd5b5050565b60008081548092919061022990610d15565b9190505550600160003373ffffffffffffffffffffffffffffffffffffffff1673ffffffffffffffffffffffffffffffffffffffff168152602001908152602001600020604051806040016040528060005481526020018381525090806001815401808255809150506001900390600052602060002090600202016000909190919091506000820151816000015560208201518160010190816102cc9190610bd5565b5050507f6550444ada089c308baa525c38c9b134b73b5b6a724c2276144d6b9ecd9f6fa060005482604051610302929190610cb6565b60405180910390a150565b6000600160003373ffffffffffffffffffffffffffffffffffffffff1673ffffffffffffffffffffffffffffffffffffffff168152602001908152602001600020905060005b818054905081101561041757828282815481106103735761037261099a565b5b906000526020600020906002020160000154036104045781818154811061039d5761039c61099a565b5b90600052602060002090600202016000808201600090556001820160006103c4919061063a565b50507f89af6ba62ab348dc535a3187c267090f834c868a3820cd552a7110c3dc3eedb8836040516103f59190610dc9565b60405180910390a15050610453565b808061040f90610d15565b915050610353565b506040517f08c379a000000000000000000000000000000000000000000000000000000000815260040161044a90610da9565b60405180910390fd5b50565b60606000600160003373ffffffffffffffffffffffffffffffffffffffff1673ffffffffffffffffffffffffffffffffffffffff168152602001908152602001600020805480602002602001604051908101604052809291908181526020016000905b828210156105875783829060005260206000209060020201604051806040016040529081600082015481526020016001820180546104f6906109f8565b80601f0160208091040260200160405190810160405280929190818152602001828054610522906109f8565b801561056f5780601f106105445761010080835404028352916020019161056f565b820191906000526020600020905b81548152906001019060200180831161055257829003601f168201915b505050505081525050815260200190600101906104b9565b50505050905060005b81518110156105f957838282815181106105ad576105ac61099a565b5b602002602001015160000151036105e6578181815181106105d1576105d061099a565b5b60200260200101516020015192505050610635565b80806105f190610d15565b915050610590565b506040517f08c379a000000000000000000000000000000000000000000000000000000000815260040161062c90610da9565b60405180910390fd5b919050565b508054610646906109f8565b6000825580601f106106585750610677565b601f016020900490600052602060002090810190610676919061067a565b5b50565b5b8082111561069357600081600090555060010161067b565b5090565b6000604051905090565b600080fd5b600080fd5b6000819050919050565b6106be816106ab565b81146106c957600080fd5b50565b6000813590506106db816106b5565b92915050565b600080fd5b600080fd5b6000601f19601f8301169050919050565b7f4e487b7100000000000000000000000000000000000000000000000000000000600052604160045260246000fd5b610734826106eb565b810181811067ffffffffffffffff82111715610753576107526106fc565b5b80604052505050565b6000610766610697565b9050610772828261072b565b919050565b600067ffffffffffffffff821115610792576107916106fc565b5b61079b826106eb565b9050602081019050919050565b82818337600083830152505050565b60006107ca6107c584610777565b61075c565b9050828152602081018484840111156107e6576107e56106e6565b5b6107f18482856107a8565b509392505050565b600082601f83011261080e5761080d6106e1565b5b813561081e8482602086016107b7565b91505092915050565b6000806040838503121561083e5761083d6106a1565b5b600061084c858286016106cc565b925050602083013567ffffffffffffffff81111561086d5761086c6106a6565b5b610879858286016107f9565b9150509250929050565b600060208284031215610899576108986106a1565b5b600082013567ffffffffffffffff8111156108b7576108b66106a6565b5b6108c3848285016107f9565b91505092915050565b6000602082840312156108e2576108e16106a1565b5b60006108f0848285016106cc565b91505092915050565b600081519050919050565b600082825260208201905092915050565b60005b83811015610933578082015181840152602081019050610918565b60008484015250505050565b600061094a826108f9565b6109548185610904565b9350610964818560208601610915565b61096d816106eb565b840191505092915050565b60006020820190508181036000830152610992818461093f565b905092915050565b7f4e487b7100000000000000000000000000000000000000000000000000000000600052603260045260246000fd5b7f4e487b7100000000000000000000000000000000000000000000000000000000600052602260045260246000fd5b60006002820490506001821680610a1057607f821691505b602082108103610a2357610a226109c9565b5b50919050565b60008190508160005260206000209050919050565b60006020601f8301049050919050565b600082821b905092915050565b600060088302610a8b7fffffffffffffffffffffffffffffffffffffffffffffffffffffffffffffffff82610a4e565b610a958683610a4e565b95508019841693508086168417925050509392505050565b6000819050919050565b6000610ad2610acd610ac8846106ab565b610aad565b6106ab565b9050919050565b6000819050919050565b610aec83610ab7565b610b00610af882610ad9565b848454610a5b565b825550505050565b600090565b610b15610b08565b610b20818484610ae3565b505050565b5b81811015610b4457610b39600082610b0d565b600181019050610b26565b5050565b601f821115610b8957610b5a81610a29565b610b6384610a3e565b81016020851015610b72578190505b610b86610b7e85610a3e565b830182610b25565b50505b505050565b600082821c905092915050565b6000610bac60001984600802610b8e565b1980831691505092915050565b6000610bc58383610b9b565b9150826002028217905092915050565b610bde826108f9565b67ffffffffffffffff811115610bf757610bf66106fc565b5b610c0182546109f8565b610c0c828285610b48565b600060209050601f831160018114610c3f5760008415610c2d578287015190505b610c378582610bb9565b865550610c9f565b601f198416610c4d86610a29565b60005b82811015610c7557848901518255600182019150602085019450602081019050610c50565b86831015610c925784890151610c8e601f891682610b9b565b8355505b6001600288020188555050505b505050505050565b610cb0816106ab565b82525050565b6000604082019050610ccb6000830185610ca7565b8181036020830152610cdd818461093f565b90509392505050565b7f4e487b7100000000000000000000000000000000000000000000000000000000600052601160045260246000fd5b6000610d20826106ab565b91507fffffffffffffffffffffffffffffffffffffffffffffffffffffffffffffffff8203610d5257610d51610ce6565b5b600182019050919050565b7f4e6f746520646f6573206e6f7420657869737400000000000000000000000000600082015250565b6000610d93601383610904565b9150610d9e82610d5d565b602082019050919050565b60006020820190508181036000830152610dc281610d86565b9050919050565b6000602082019050610dde6000830184610ca7565b9291505056fea2646970667358221220d405facf99341ac2b8ee70187abf5ae272b0be61beb4518cd3218bdadf0be09064736f6c63430008120033","opcodes":"PUSH1 0x80 PUSH1 0x40 MSTORE CALLVALUE DUP1 ISZERO PUSH2 0x10 JUMPI PUSH1 0x0 DUP1 REVERT JUMPDEST POP PUSH2 0xE1A DUP1 PUSH2 0x20 PUSH1 0x0 CODECOPY PUSH1 0x0 RETURN INVALID PUSH1 0x80 PUSH1 0x40 MSTORE CALLVALUE DUP1 ISZERO PUSH2 0x10 JUMPI PUSH1 0x0 DUP1 REVERT JUMPDEST POP PUSH1 0x4 CALLDATASIZE LT PUSH2 0x4C JUMPI PUSH1 0x0 CALLDATALOAD PUSH1 0xE0 SHR DUP1 PUSH4 0x49781EF9 EQ PUSH2 0x51 JUMPI DUP1 PUSH4 0xB6A46B3B EQ PUSH2 0x6D JUMPI DUP1 PUSH4 0xC47177F4 EQ PUSH2 0x89 JUMPI DUP1 PUSH4 0xED2E5A97 EQ PUSH2 0xA5 JUMPI JUMPDEST PUSH1 0x0 DUP1 REVERT JUMPDEST PUSH2 0x6B PUSH1 0x4 DUP1 CALLDATASIZE SUB DUP2 ADD SWAP1 PUSH2 0x66 SWAP2 SWAP1 PUSH2 0x827 JUMP JUMPDEST PUSH2 0xD5 JUMP JUMPDEST STOP JUMPDEST PUSH2 0x87 PUSH1 0x4 DUP1 CALLDATASIZE SUB DUP2 ADD SWAP1 PUSH2 0x82 SWAP2 SWAP1 PUSH2 0x883 JUMP JUMPDEST PUSH2 0x217 JUMP JUMPDEST STOP JUMPDEST PUSH2 0xA3 PUSH1 0x4 DUP1 CALLDATASIZE SUB DUP2 ADD SWAP1 PUSH2 0x9E SWAP2 SWAP1 PUSH2 0x8CC JUMP JUMPDEST PUSH2 0x30D JUMP JUMPDEST STOP JUMPDEST PUSH2 0xBF PUSH1 0x4 DUP1 CALLDATASIZE SUB DUP2 ADD SWAP1 PUSH2 0xBA SWAP2 SWAP1 PUSH2 0x8CC JUMP JUMPDEST PUSH2 0x456 JUMP JUMPDEST PUSH1 0x40 MLOAD PUSH2 0xCC SWAP2 SWAP1 PUSH2 0x978 JUMP JUMPDEST PUSH1 0x40 MLOAD DUP1 SWAP2 SUB SWAP1 RETURN JUMPDEST PUSH1 0x0 PUSH1 0x1 PUSH1 0x0 CALLER PUSH20 0xFFFFFFFFFFFFFFFFFFFFFFFFFFFFFFFFFFFFFFFF AND PUSH20 0xFFFFFFFFFFFFFFFFFFFFFFFFFFFFFFFFFFFFFFFF AND DUP2 MSTORE PUSH1 0x20 ADD SWAP1 DUP2 MSTORE PUSH1 0x20 ADD PUSH1 0x0 KECCAK256 SWAP1 POP PUSH1 0x0 JUMPDEST DUP2 DUP1 SLOAD SWAP1 POP DUP2 LT ISZERO PUSH2 0x1D7 JUMPI DUP4 DUP3 DUP3 DUP2 SLOAD DUP2 LT PUSH2 0x13B JUMPI PUSH2 0x13A PUSH2 0x99A JUMP JUMPDEST JUMPDEST SWAP1 PUSH1 0x0 MSTORE PUSH1 0x20 PUSH1 0x0 KECCAK256 SWAP1 PUSH1 0x2 MUL ADD PUSH1 0x0 ADD SLOAD SUB PUSH2 0x1C4 JUMPI DUP3 DUP3 DUP3 DUP2 SLOAD DUP2 LT PUSH2 0x166 JUMPI PUSH2 0x165 PUSH2 0x99A JUMP JUMPDEST JUMPDEST SWAP1 PUSH1 0x0 MSTORE PUSH1 0x20 PUSH1 0x0 KECCAK256 SWAP1 PUSH1 0x2 MUL ADD PUSH1 0x1 ADD SWAP1 DUP2 PUSH2 0x183 SWAP2 SWAP1 PUSH2 0xBD5 JUMP JUMPDEST POP PUSH32 0xF4A9990466472E087350221001DBDF2F5F11C2BCB1019E44FC8449FF3999EB94 DUP5 DUP5 PUSH1 0x40 MLOAD PUSH2 0x1B5 SWAP3 SWAP2 SWAP1 PUSH2 0xCB6 JUMP JUMPDEST PUSH1 0x40 MLOAD DUP1 SWAP2 SUB SWAP1 LOG1 POP POP PUSH2 0x213 JUMP JUMPDEST DUP1 DUP1 PUSH2 0x1CF SWAP1 PUSH2 0xD15 JUMP JUMPDEST SWAP2 POP POP PUSH2 0x11B JUMP JUMPDEST POP PUSH1 0x40 MLOAD PUSH32 0x8C379A000000000000000000000000000000000000000000000000000000000 DUP2 MSTORE PUSH1 0x4 ADD PUSH2 0x20A SWAP1 PUSH2 0xDA9 JUMP JUMPDEST PUSH1 0x40 MLOAD DUP1 SWAP2 SUB SWAP1 REVERT JUMPDEST POP POP JUMP JUMPDEST PUSH1 0x0 DUP1 DUP2 SLOAD DUP1 SWAP3 SWAP2 SWAP1 PUSH2 0x229 SWAP1 PUSH2 0xD15 JUMP JUMPDEST SWAP2 SWAP1 POP SSTORE POP PUSH1 0x1 PUSH1 0x0 CALLER PUSH20 0xFFFFFFFFFFFFFFFFFFFFFFFFFFFFFFFFFFFFFFFF AND PUSH20 0xFFFFFFFFFFFFFFFFFFFFFFFFFFFFFFFFFFFFFFFF AND DUP2 MSTORE PUSH1 0x20 ADD SWAP1 DUP2 MSTORE PUSH1 0x20 ADD PUSH1 0x0 KECCAK256 PUSH1 0x40 MLOAD DUP1 PUSH1 0x40 ADD PUSH1 0x40 MSTORE DUP1 PUSH1 0x0 SLOAD DUP2 MSTORE PUSH1 0x20 ADD DUP4 DUP2 MSTORE POP SWAP1 DUP1 PUSH1 0x1 DUP2 SLOAD ADD DUP1 DUP3 SSTORE DUP1 SWAP2 POP POP PUSH1 0x1 SWAP1 SUB SWAP1 PUSH1 0x0 MSTORE PUSH1 0x20 PUSH1 0x0 KECCAK256 SWAP1 PUSH1 0x2 MUL ADD PUSH1 0x0 SWAP1 SWAP2 SWAP1 SWAP2 SWAP1 SWAP2 POP PUSH1 0x0 DUP3 ADD MLOAD DUP2 PUSH1 0x0 ADD SSTORE PUSH1 0x20 DUP3 ADD MLOAD DUP2 PUSH1 0x1 ADD SWAP1 DUP2 PUSH2 0x2CC SWAP2 SWAP1 PUSH2 0xBD5 JUMP JUMPDEST POP POP POP PUSH32 0x6550444ADA089C308BAA525C38C9B134B73B5B6A724C2276144D6B9ECD9F6FA0 PUSH1 0x0 SLOAD DUP3 PUSH1 0x40 MLOAD PUSH2 0x302 SWAP3 SWAP2 SWAP1 PUSH2 0xCB6 JUMP JUMPDEST PUSH1 0x40 MLOAD DUP1 SWAP2 SUB SWAP1 LOG1 POP JUMP JUMPDEST PUSH1 0x0 PUSH1 0x1 PUSH1 0x0 CALLER PUSH20 0xFFFFFFFFFFFFFFFFFFFFFFFFFFFFFFFFFFFFFFFF AND PUSH20 0xFFFFFFFFFFFFFFFFFFFFFFFFFFFFFFFFFFFFFFFF AND DUP2 MSTORE PUSH1 0x20 ADD SWAP1 DUP2 MSTORE PUSH1 0x20 ADD PUSH1 0x0 KECCAK256 SWAP1 POP PUSH1 0x0 JUMPDEST DUP2 DUP1 SLOAD SWAP1 POP DUP2 LT ISZERO PUSH2 0x417 JUMPI DUP3 DUP3 DUP3 DUP2 SLOAD DUP2 LT PUSH2 0x373 JUMPI PUSH2 0x372 PUSH2 0x99A JUMP JUMPDEST JUMPDEST SWAP1 PUSH1 0x0 MSTORE PUSH1 0x20 PUSH1 0x0 KECCAK256 SWAP1 PUSH1 0x2 MUL ADD PUSH1 0x0 ADD SLOAD SUB PUSH2 0x404 JUMPI DUP2 DUP2 DUP2 SLOAD DUP2 LT PUSH2 0x39D JUMPI PUSH2 0x39C PUSH2 0x99A JUMP JUMPDEST JUMPDEST SWAP1 PUSH1 0x0 MSTORE PUSH1 0x20 PUSH1 0x0 KECCAK256 SWAP1 PUSH1 0x2 MUL ADD PUSH1 0x0 DUP1 DUP3 ADD PUSH1 0x0 SWAP1 SSTORE PUSH1 0x1 DUP3 ADD PUSH1 0x0 PUSH2 0x3C4 SWAP2 SWAP1 PUSH2 0x63A JUMP JUMPDEST POP POP PUSH32 0x89AF6BA62AB348DC535A3187C267090F834C868A3820CD552A7110C3DC3EEDB8 DUP4 PUSH1 0x40 MLOAD PUSH2 0x3F5 SWAP2 SWAP1 PUSH2 0xDC9 JUMP JUMPDEST PUSH1 0x40 MLOAD DUP1 SWAP2 SUB SWAP1 LOG1 POP POP PUSH2 0x453 JUMP JUMPDEST DUP1 DUP1 PUSH2 0x40F SWAP1 PUSH2 0xD15 JUMP JUMPDEST SWAP2 POP POP PUSH2 0x353 JUMP JUMPDEST POP PUSH1 0x40 MLOAD PUSH32 0x8C379A000000000000000000000000000000000000000000000000000000000 DUP2 MSTORE PUSH1 0x4 ADD PUSH2 0x44A SWAP1 PUSH2 0xDA9 JUMP JUMPDEST PUSH1 0x40 MLOAD DUP1 SWAP2 SUB SWAP1 REVERT JUMPDEST POP JUMP JUMPDEST PUSH1 0x60 PUSH1 0x0 PUSH1 0x1 PUSH1 0x0 CALLER PUSH20 0xFFFFFFFFFFFFFFFFFFFFFFFFFFFFFFFFFFFFFFFF AND PUSH20 0xFFFFFFFFFFFFFFFFFFFFFFFFFFFFFFFFFFFFFFFF AND DUP2 MSTORE PUSH1 0x20 ADD SWAP1 DUP2 MSTORE PUSH1 0x20 ADD PUSH1 0x0 KECCAK256 DUP1 SLOAD DUP1 PUSH1 0x20 MUL PUSH1 0x20 ADD PUSH1 0x40 MLOAD SWAP1 DUP2 ADD PUSH1 0x40 MSTORE DUP1 SWAP3 SWAP2 SWAP1 DUP2 DUP2 MSTORE PUSH1 0x20 ADD PUSH1 0x0 SWAP1 JUMPDEST DUP3 DUP3 LT ISZERO PUSH2 0x587 JUMPI DUP4 DUP3 SWAP1 PUSH1 0x0 MSTORE PUSH1 0x20 PUSH1 0x0 KECCAK256 SWAP1 PUSH1 0x2 MUL ADD PUSH1 0x40 MLOAD DUP1 PUSH1 0x40 ADD PUSH1 0x40 MSTORE SWAP1 DUP2 PUSH1 0x0 DUP3 ADD SLOAD DUP2 MSTORE PUSH1 0x20 ADD PUSH1 0x1 DUP3 ADD DUP1 SLOAD PUSH2 0x4F6 SWAP1 PUSH2 0x9F8 JUMP JUMPDEST DUP1 PUSH1 0x1F ADD PUSH1 0x20 DUP1 SWAP2 DIV MUL PUSH1 0x20 ADD PUSH1 0x40 MLOAD SWAP1 DUP2 ADD PUSH1 0x40 MSTORE DUP1 SWAP3 SWAP2 SWAP1 DUP2 DUP2 MSTORE PUSH1 0x20 ADD DUP3 DUP1 SLOAD PUSH2 0x522 SWAP1 PUSH2 0x9F8 JUMP JUMPDEST DUP1 ISZERO PUSH2 0x56F JUMPI DUP1 PUSH1 0x1F LT PUSH2 0x544 JUMPI PUSH2 0x100 DUP1 DUP4 SLOAD DIV MUL DUP4 MSTORE SWAP2 PUSH1 0x20 ADD SWAP2 PUSH2 0x56F JUMP JUMPDEST DUP3 ADD SWAP2 SWAP1 PUSH1 0x0 MSTORE PUSH1 0x20 PUSH1 0x0 KECCAK256 SWAP1 JUMPDEST DUP2 SLOAD DUP2 MSTORE SWAP1 PUSH1 0x1 ADD SWAP1 PUSH1 0x20 ADD DUP1 DUP4 GT PUSH2 0x552 JUMPI DUP3 SWAP1 SUB PUSH1 0x1F AND DUP3 ADD SWAP2 JUMPDEST POP POP POP POP POP DUP2 MSTORE POP POP DUP2 MSTORE PUSH1 0x20 ADD SWAP1 PUSH1 0x1 ADD SWAP1 PUSH2 0x4B9 JUMP JUMPDEST POP POP POP POP SWAP1 POP PUSH1 0x0 JUMPDEST DUP2 MLOAD DUP2 LT ISZERO PUSH2 0x5F9 JUMPI DUP4 DUP3 DUP3 DUP2 MLOAD DUP2 LT PUSH2 0x5AD JUMPI PUSH2 0x5AC PUSH2 0x99A JUMP JUMPDEST JUMPDEST PUSH1 0x20 MUL PUSH1 0x20 ADD ADD MLOAD PUSH1 0x0 ADD MLOAD SUB PUSH2 0x5E6 JUMPI DUP2 DUP2 DUP2 MLOAD DUP2 LT PUSH2 0x5D1 JUMPI PUSH2 0x5D0 PUSH2 0x99A JUMP JUMPDEST JUMPDEST PUSH1 0x20 MUL PUSH1 0x20 ADD ADD MLOAD PUSH1 0x20 ADD MLOAD SWAP3 POP POP POP PUSH2 0x635 JUMP JUMPDEST DUP1 DUP1 PUSH2 0x5F1 SWAP1 PUSH2 0xD15 JUMP JUMPDEST SWAP2 POP POP PUSH2 0x590 JUMP JUMPDEST POP PUSH1 0x40 MLOAD PUSH32 0x8C379A000000000000000000000000000000000000000000000000000000000 DUP2 MSTORE PUSH1 0x4 ADD PUSH2 0x62C SWAP1 PUSH2 0xDA9 JUMP JUMPDEST PUSH1 0x40 MLOAD DUP1 SWAP2 SUB SWAP1 REVERT JUMPDEST SWAP2 SWAP1 POP JUMP JUMPDEST POP DUP1 SLOAD PUSH2 0x646 SWAP1 PUSH2 0x9F8 JUMP JUMPDEST PUSH1 0x0 DUP3 SSTORE DUP1 PUSH1 0x1F LT PUSH2 0x658 JUMPI POP PUSH2 0x677 JUMP JUMPDEST PUSH1 0x1F ADD PUSH1 0x20 SWAP1 DIV SWAP1 PUSH1 0x0 MSTORE PUSH1 0x20 PUSH1 0x0 KECCAK256 SWAP1 DUP2 ADD SWAP1 PUSH2 0x676 SWAP2 SWAP1 PUSH2 0x67A JUMP JUMPDEST JUMPDEST POP JUMP JUMPDEST JUMPDEST DUP1 DUP3 GT ISZERO PUSH2 0x693 JUMPI PUSH1 0x0 DUP2 PUSH1 0x0 SWAP1 SSTORE POP PUSH1 0x1 ADD PUSH2 0x67B JUMP JUMPDEST POP SWAP1 JUMP JUMPDEST PUSH1 0x0 PUSH1 0x40 MLOAD SWAP1 POP SWAP1 JUMP JUMPDEST PUSH1 0x0 DUP1 REVERT JUMPDEST PUSH1 0x0 DUP1 REVERT JUMPDEST PUSH1 0x0 DUP2 SWAP1 POP SWAP2 SWAP1 POP JUMP JUMPDEST PUSH2 0x6BE DUP2 PUSH2 0x6AB JUMP JUMPDEST DUP2 EQ PUSH2 0x6C9 JUMPI PUSH1 0x0 DUP1 REVERT JUMPDEST POP JUMP JUMPDEST PUSH1 0x0 DUP2 CALLDATALOAD SWAP1 POP PUSH2 0x6DB DUP2 PUSH2 0x6B5 JUMP JUMPDEST SWAP3 SWAP2 POP POP JUMP JUMPDEST PUSH1 0x0 DUP1 REVERT JUMPDEST PUSH1 0x0 DUP1 REVERT JUMPDEST PUSH1 0x0 PUSH1 0x1F NOT PUSH1 0x1F DUP4 ADD AND SWAP1 POP SWAP2 SWAP1 POP JUMP JUMPDEST PUSH32 0x4E487B7100000000000000000000000000000000000000000000000000000000 PUSH1 0x0 MSTORE PUSH1 0x41 PUSH1 0x4 MSTORE PUSH1 0x24 PUSH1 0x0 REVERT JUMPDEST PUSH2 0x734 DUP3 PUSH2 0x6EB JUMP JUMPDEST DUP2 ADD DUP2 DUP2 LT PUSH8 0xFFFFFFFFFFFFFFFF DUP3 GT OR ISZERO PUSH2 0x753 JUMPI PUSH2 0x752 PUSH2 0x6FC JUMP JUMPDEST JUMPDEST DUP1 PUSH1 0x40 MSTORE POP POP POP JUMP JUMPDEST PUSH1 0x0 PUSH2 0x766 PUSH2 0x697 JUMP JUMPDEST SWAP1 POP PUSH2 0x772 DUP3 DUP3 PUSH2 0x72B JUMP JUMPDEST SWAP2 SWAP1 POP JUMP JUMPDEST PUSH1 0x0 PUSH8 0xFFFFFFFFFFFFFFFF DUP3 GT ISZERO PUSH2 0x792 JUMPI PUSH2 0x791 PUSH2 0x6FC JUMP JUMPDEST JUMPDEST PUSH2 0x79B DUP3 PUSH2 0x6EB JUMP JUMPDEST SWAP1 POP PUSH1 0x20 DUP2 ADD SWAP1 POP SWAP2 SWAP1 POP JUMP JUMPDEST DUP3 DUP2 DUP4 CALLDATACOPY PUSH1 0x0 DUP4 DUP4 ADD MSTORE POP POP POP JUMP JUMPDEST PUSH1 0x0 PUSH2 0x7CA PUSH2 0x7C5 DUP5 PUSH2 0x777 JUMP JUMPDEST PUSH2 0x75C JUMP JUMPDEST SWAP1 POP DUP3 DUP2 MSTORE PUSH1 0x20 DUP2 ADD DUP5 DUP5 DUP5 ADD GT ISZERO PUSH2 0x7E6 JUMPI PUSH2 0x7E5 PUSH2 0x6E6 JUMP JUMPDEST JUMPDEST PUSH2 0x7F1 DUP5 DUP3 DUP6 PUSH2 0x7A8 JUMP JUMPDEST POP SWAP4 SWAP3 POP POP POP JUMP JUMPDEST PUSH1 0x0 DUP3 PUSH1 0x1F DUP4 ADD SLT PUSH2 0x80E JUMPI PUSH2 0x80D PUSH2 0x6E1 JUMP JUMPDEST JUMPDEST DUP2 CALLDATALOAD PUSH2 0x81E DUP5 DUP3 PUSH1 0x20 DUP7 ADD PUSH2 0x7B7 JUMP JUMPDEST SWAP2 POP POP SWAP3 SWAP2 POP POP JUMP JUMPDEST PUSH1 0x0 DUP1 PUSH1 0x40 DUP4 DUP6 SUB SLT ISZERO PUSH2 0x83E JUMPI PUSH2 0x83D PUSH2 0x6A1 JUMP JUMPDEST JUMPDEST PUSH1 0x0 PUSH2 0x84C DUP6 DUP3 DUP7 ADD PUSH2 0x6CC JUMP JUMPDEST SWAP3 POP POP PUSH1 0x20 DUP4 ADD CALLDATALOAD PUSH8 0xFFFFFFFFFFFFFFFF DUP2 GT ISZERO PUSH2 0x86D JUMPI PUSH2 0x86C PUSH2 0x6A6 JUMP JUMPDEST JUMPDEST PUSH2 0x879 DUP6 DUP3 DUP7 ADD PUSH2 0x7F9 JUMP JUMPDEST SWAP2 POP POP SWAP3 POP SWAP3 SWAP1 POP JUMP JUMPDEST PUSH1 0x0 PUSH1 0x20 DUP3 DUP5 SUB SLT ISZERO PUSH2 0x899 JUMPI PUSH2 0x898 PUSH2 0x6A1 JUMP JUMPDEST JUMPDEST PUSH1 0x0 DUP3 ADD CALLDATALOAD PUSH8 0xFFFFFFFFFFFFFFFF DUP2 GT ISZERO PUSH2 0x8B7 JUMPI PUSH2 0x8B6 PUSH2 0x6A6 JUMP JUMPDEST JUMPDEST PUSH2 0x8C3 DUP5 DUP3 DUP6 ADD PUSH2 0x7F9 JUMP JUMPDEST SWAP2 POP POP SWAP3 SWAP2 POP POP JUMP JUMPDEST PUSH1 0x0 PUSH1 0x20 DUP3 DUP5 SUB SLT ISZERO PUSH2 0x8E2 JUMPI PUSH2 0x8E1 PUSH2 0x6A1 JUMP JUMPDEST JUMPDEST PUSH1 0x0 PUSH2 0x8F0 DUP5 DUP3 DUP6 ADD PUSH2 0x6CC JUMP JUMPDEST SWAP2 POP POP SWAP3 SWAP2 POP POP JUMP JUMPDEST PUSH1 0x0 DUP2 MLOAD SWAP1 POP SWAP2 SWAP1 POP JUMP JUMPDEST PUSH1 0x0 DUP3 DUP3 MSTORE PUSH1 0x20 DUP3 ADD SWAP1 POP SWAP3 SWAP2 POP POP JUMP JUMPDEST PUSH1 0x0 JUMPDEST DUP4 DUP2 LT ISZERO PUSH2 0x933 JUMPI DUP1 DUP3 ADD MLOAD DUP2 DUP5 ADD MSTORE PUSH1 0x20 DUP2 ADD SWAP1 POP PUSH2 0x918 JUMP JUMPDEST PUSH1 0x0 DUP5 DUP5 ADD MSTORE POP POP POP POP JUMP JUMPDEST PUSH1 0x0 PUSH2 0x94A DUP3 PUSH2 0x8F9 JUMP JUMPDEST PUSH2 0x954 DUP2 DUP6 PUSH2 0x904 JUMP JUMPDEST SWAP4 POP PUSH2 0x964 DUP2 DUP6 PUSH1 0x20 DUP7 ADD PUSH2 0x915 JUMP JUMPDEST PUSH2 0x96D DUP2 PUSH2 0x6EB JUMP JUMPDEST DUP5 ADD SWAP2 POP POP SWAP3 SWAP2 POP POP JUMP JUMPDEST PUSH1 0x0 PUSH1 0x20 DUP3 ADD SWAP1 POP DUP2 DUP2 SUB PUSH1 0x0 DUP4 ADD MSTORE PUSH2 0x992 DUP2 DUP5 PUSH2 0x93F JUMP JUMPDEST SWAP1 POP SWAP3 SWAP2 POP POP JUMP JUMPDEST PUSH32 0x4E487B7100000000000000000000000000000000000000000000000000000000 PUSH1 0x0 MSTORE PUSH1 0x32 PUSH1 0x4 MSTORE PUSH1 0x24 PUSH1 0x0 REVERT JUMPDEST PUSH32 0x4E487B7100000000000000000000000000000000000000000000000000000000 PUSH1 0x0 MSTORE PUSH1 0x22 PUSH1 0x4 MSTORE PUSH1 0x24 PUSH1 0x0 REVERT JUMPDEST PUSH1 0x0 PUSH1 0x2 DUP3 DIV SWAP1 POP PUSH1 0x1 DUP3 AND DUP1 PUSH2 0xA10 JUMPI PUSH1 0x7F DUP3 AND SWAP2 POP JUMPDEST PUSH1 0x20 DUP3 LT DUP2 SUB PUSH2 0xA23 JUMPI PUSH2 0xA22 PUSH2 0x9C9 JUMP JUMPDEST JUMPDEST POP SWAP2 SWAP1 POP JUMP JUMPDEST PUSH1 0x0 DUP2 SWAP1 POP DUP2 PUSH1 0x0 MSTORE PUSH1 0x20 PUSH1 0x0 KECCAK256 SWAP1 POP SWAP2 SWAP1 POP JUMP JUMPDEST PUSH1 0x0 PUSH1 0x20 PUSH1 0x1F DUP4 ADD DIV SWAP1 POP SWAP2 SWAP1 POP JUMP JUMPDEST PUSH1 0x0 DUP3 DUP3 SHL SWAP1 POP SWAP3 SWAP2 POP POP JUMP JUMPDEST PUSH1 0x0 PUSH1 0x8 DUP4 MUL PUSH2 0xA8B PUSH32 0xFFFFFFFFFFFFFFFFFFFFFFFFFFFFFFFFFFFFFFFFFFFFFFFFFFFFFFFFFFFFFFFF DUP3 PUSH2 0xA4E JUMP JUMPDEST PUSH2 0xA95 DUP7 DUP4 PUSH2 0xA4E JUMP JUMPDEST SWAP6 POP DUP1 NOT DUP5 AND SWAP4 POP DUP1 DUP7 AND DUP5 OR SWAP3 POP POP POP SWAP4 SWAP3 POP POP POP JUMP JUMPDEST PUSH1 0x0 DUP2 SWAP1 POP SWAP2 SWAP1 POP JUMP JUMPDEST PUSH1 0x0 PUSH2 0xAD2 PUSH2 0xACD PUSH2 0xAC8 DUP5 PUSH2 0x6AB JUMP JUMPDEST PUSH2 0xAAD JUMP JUMPDEST PUSH2 0x6AB JUMP JUMPDEST SWAP1 POP SWAP2 SWAP1 POP JUMP JUMPDEST PUSH1 0x0 DUP2 SWAP1 POP SWAP2 SWAP1 POP JUMP JUMPDEST PUSH2 0xAEC DUP4 PUSH2 0xAB7 JUMP JUMPDEST PUSH2 0xB00 PUSH2 0xAF8 DUP3 PUSH2 0xAD9 JUMP JUMPDEST DUP5 DUP5 SLOAD PUSH2 0xA5B JUMP JUMPDEST DUP3 SSTORE POP POP POP POP JUMP JUMPDEST PUSH1 0x0 SWAP1 JUMP JUMPDEST PUSH2 0xB15 PUSH2 0xB08 JUMP JUMPDEST PUSH2 0xB20 DUP2 DUP5 DUP5 PUSH2 0xAE3 JUMP JUMPDEST POP POP POP JUMP JUMPDEST JUMPDEST DUP2 DUP2 LT ISZERO PUSH2 0xB44 JUMPI PUSH2 0xB39 PUSH1 0x0 DUP3 PUSH2 0xB0D JUMP JUMPDEST PUSH1 0x1 DUP2 ADD SWAP1 POP PUSH2 0xB26 JUMP JUMPDEST POP POP JUMP JUMPDEST PUSH1 0x1F DUP3 GT ISZERO PUSH2 0xB89 JUMPI PUSH2 0xB5A DUP2 PUSH2 0xA29 JUMP JUMPDEST PUSH2 0xB63 DUP5 PUSH2 0xA3E JUMP JUMPDEST DUP2 ADD PUSH1 0x20 DUP6 LT ISZERO PUSH2 0xB72 JUMPI DUP2 SWAP1 POP JUMPDEST PUSH2 0xB86 PUSH2 0xB7E DUP6 PUSH2 0xA3E JUMP JUMPDEST DUP4 ADD DUP3 PUSH2 0xB25 JUMP JUMPDEST POP POP JUMPDEST POP POP POP JUMP JUMPDEST PUSH1 0x0 DUP3 DUP3 SHR SWAP1 POP SWAP3 SWAP2 POP POP JUMP JUMPDEST PUSH1 0x0 PUSH2 0xBAC PUSH1 0x0 NOT DUP5 PUSH1 0x8 MUL PUSH2 0xB8E JUMP JUMPDEST NOT DUP1 DUP4 AND SWAP2 POP POP SWAP3 SWAP2 POP POP JUMP JUMPDEST PUSH1 0x0 PUSH2 0xBC5 DUP4 DUP4 PUSH2 0xB9B JUMP JUMPDEST SWAP2 POP DUP3 PUSH1 0x2 MUL DUP3 OR SWAP1 POP SWAP3 SWAP2 POP POP JUMP JUMPDEST PUSH2 0xBDE DUP3 PUSH2 0x8F9 JUMP JUMPDEST PUSH8 0xFFFFFFFFFFFFFFFF DUP2 GT ISZERO PUSH2 0xBF7 JUMPI PUSH2 0xBF6 PUSH2 0x6FC JUMP JUMPDEST JUMPDEST PUSH2 0xC01 DUP3 SLOAD PUSH2 0x9F8 JUMP JUMPDEST PUSH2 0xC0C DUP3 DUP3 DUP6 PUSH2 0xB48 JUMP JUMPDEST PUSH1 0x0 PUSH1 0x20 SWAP1 POP PUSH1 0x1F DUP4 GT PUSH1 0x1 DUP2 EQ PUSH2 0xC3F JUMPI PUSH1 0x0 DUP5 ISZERO PUSH2 0xC2D JUMPI DUP3 DUP8 ADD MLOAD SWAP1 POP JUMPDEST PUSH2 0xC37 DUP6 DUP3 PUSH2 0xBB9 JUMP JUMPDEST DUP7 SSTORE POP PUSH2 0xC9F JUMP JUMPDEST PUSH1 0x1F NOT DUP5 AND PUSH2 0xC4D DUP7 PUSH2 0xA29 JUMP JUMPDEST PUSH1 0x0 JUMPDEST DUP3 DUP2 LT ISZERO PUSH2 0xC75 JUMPI DUP5 DUP10 ADD MLOAD DUP3 SSTORE PUSH1 0x1 DUP3 ADD SWAP2 POP PUSH1 0x20 DUP6 ADD SWAP5 POP PUSH1 0x20 DUP2 ADD SWAP1 POP PUSH2 0xC50 JUMP JUMPDEST DUP7 DUP4 LT ISZERO PUSH2 0xC92 JUMPI DUP5 DUP10 ADD MLOAD PUSH2 0xC8E PUSH1 0x1F DUP10 AND DUP3 PUSH2 0xB9B JUMP JUMPDEST DUP4 SSTORE POP JUMPDEST PUSH1 0x1 PUSH1 0x2 DUP9 MUL ADD DUP9 SSTORE POP POP POP JUMPDEST POP POP POP POP POP POP JUMP JUMPDEST PUSH2 0xCB0 DUP2 PUSH2 0x6AB JUMP JUMPDEST DUP3 MSTORE POP POP JUMP JUMPDEST PUSH1 0x0 PUSH1 0x40 DUP3 ADD SWAP1 POP PUSH2 0xCCB PUSH1 0x0 DUP4 ADD DUP6 PUSH2 0xCA7 JUMP JUMPDEST DUP2 DUP2 SUB PUSH1 0x20 DUP4 ADD MSTORE PUSH2 0xCDD DUP2 DUP5 PUSH2 0x93F JUMP JUMPDEST SWAP1 POP SWAP4 SWAP3 POP POP POP JUMP JUMPDEST PUSH32 0x4E487B7100000000000000000000000000000000000000000000000000000000 PUSH1 0x0 MSTORE PUSH1 0x11 PUSH1 0x4 MSTORE PUSH1 0x24 PUSH1 0x0 REVERT JUMPDEST PUSH1 0x0 PUSH2 0xD20 DUP3 PUSH2 0x6AB JUMP JUMPDEST SWAP2 POP PUSH32 0xFFFFFFFFFFFFFFFFFFFFFFFFFFFFFFFFFFFFFFFFFFFFFFFFFFFFFFFFFFFFFFFF DUP3 SUB PUSH2 0xD52 JUMPI PUSH2 0xD51 PUSH2 0xCE6 JUMP JUMPDEST JUMPDEST PUSH1 0x1 DUP3 ADD SWAP1 POP SWAP2 SWAP1 POP JUMP JUMPDEST PUSH32 0x4E6F746520646F6573206E6F7420657869737400000000000000000000000000 PUSH1 0x0 DUP3 ADD MSTORE POP JUMP JUMPDEST PUSH1 0x0 PUSH2 0xD93 PUSH1 0x13 DUP4 PUSH2 0x904 JUMP JUMPDEST SWAP2 POP PUSH2 0xD9E DUP3 PUSH2 0xD5D JUMP JUMPDEST PUSH1 0x20 DUP3 ADD SWAP1 POP SWAP2 SWAP1 POP JUMP JUMPDEST PUSH1 0x0 PUSH1 0x20 DUP3 ADD SWAP1 POP DUP2 DUP2 SUB PUSH1 0x0 DUP4 ADD MSTORE PUSH2 0xDC2 DUP2 PUSH2 0xD86 JUMP JUMPDEST SWAP1 POP SWAP2 SWAP1 POP JUMP JUMPDEST PUSH1 0x0 PUSH1 0x20 DUP3 ADD SWAP1 POP PUSH2 0xDDE PUSH1 0x0 DUP4 ADD DUP5 PUSH2 0xCA7 JUMP JUMPDEST SWAP3 SWAP2 POP POP JUMP INVALID LOG2 PUSH5 0x6970667358 0x22 SLT KECCAK256 0xD4 SDIV STATICCALL 0xCF SWAP10 CALLVALUE BYTE 0xC2 0xB8 0xEE PUSH17 0x187ABF5AE272B0BE61BEB4518CD3218BDA 0xDF SIGNEXTEND 0xE0 SWAP1 PUSH5 0x736F6C6343 STOP ADDMOD SLT STOP CALLER "},"methodIdentifiers":{"create(string)":"b6a46b3b","deleteNote(uint256)":"c47177f4","read(uint256)":"ed2e5a97","updateNote(uint256,string)":"49781ef9"}}}}}