{
  "_format": "hh-sol-artifact-1",
  "contractName": "SimpleDapp",
  "sourceName": "contracts/SimpleDapp.sol",
  "abi": [
    {
      "anonymous": false,
      "inputs": [
        {
          "indexed": true,
          "internalType": "address",
          "name": "user",
          "type": "address"
        },
        {
          "indexed": false,
          "internalType": "uint256",
          "name": "amount",
          "type": "uint256"
        }
      ],
      "name": "Deposited",
      "type": "event"
    },
    {
      "anonymous": false,
      "inputs": [
        {
          "indexed": true,
          "internalType": "address",
          "name": "user",
          "type": "address"
        },
        {
          "indexed": false,
          "internalType": "uint256",
          "name": "amount",
          "type": "uint256"
        }
      ],
      "name": "Withdrawn",
      "type": "event"
    },
    {
      "inputs": [],
      "name": "deposit",
      "outputs": [],
      "stateMutability": "payable",
      "type": "function"
    },
    {
      "inputs": [
        {
          "internalType": "address",
          "name": "user",
          "type": "address"
        }
      ],
      "name": "getBalance",
      "outputs": [
        {
          "internalType": "uint256",
          "name": "",
          "type": "uint256"
        }
      ],
      "stateMutability": "view",
      "type": "function"
    },
    {
      "inputs": [
        {
          "internalType": "uint256",
          "name": "amount",
          "type": "uint256"
        }
      ],
      "name": "withdraw",
      "outputs": [],
      "stateMutability": "nonpayable",
      "type": "function"
    }
  ],
  "bytecode": "0x608060405234801561001057600080fd5b50610640806100206000396000f3fe6080604052600436106100345760003560e01c80632e1a7d4d14610039578063d0e30db014610062578063f8b2cb4f1461006c575b600080fd5b34801561004557600080fd5b50610060600480360381019061005b9190610382565b6100a9565b005b61006a610217565b005b34801561007857600080fd5b50610093600480360381019061008e919061040d565b6102ff565b6040516100a09190610449565b60405180910390f35b806000803373ffffffffffffffffffffffffffffffffffffffff1673ffffffffffffffffffffffffffffffffffffffff16815260200190815260200160002054101561012a576040517f08c379a0000000000000000000000000000000000000000000000000000000008152600401610121906104c1565b60405180910390fd5b806000803373ffffffffffffffffffffffffffffffffffffffff1673ffffffffffffffffffffffffffffffffffffffff16815260200190815260200160002060008282546101789190610510565b925050819055503373ffffffffffffffffffffffffffffffffffffffff166108fc829081150290604051600060405180830381858888f193505050501580156101c5573d6000803e3d6000fd5b503373ffffffffffffffffffffffffffffffffffffffff167f7084f5476618d8e60b11ef0d7d3f06914655adb8793e28ff7f018d4c76d505d58260405161020c9190610449565b60405180910390a250565b6000341161025a576040517f08c379a0000000000000000000000000000000000000000000000000000000008152600401610251906105b6565b60405180910390fd5b346000803373ffffffffffffffffffffffffffffffffffffffff1673ffffffffffffffffffffffffffffffffffffffff16815260200190815260200160002060008282546102a891906105d6565b925050819055503373ffffffffffffffffffffffffffffffffffffffff167f2da466a7b24304f47e87fa2e1e5a81b9831ce54fec19055ce277ca2f39ba42c4346040516102f59190610449565b60405180910390a2565b60008060008373ffffffffffffffffffffffffffffffffffffffff1673ffffffffffffffffffffffffffffffffffffffff168152602001908152602001600020549050919050565b600080fd5b6000819050919050565b61035f8161034c565b811461036a57600080fd5b50565b60008135905061037c81610356565b92915050565b60006020828403121561039857610397610347565b5b60006103a68482850161036d565b91505092915050565b600073ffffffffffffffffffffffffffffffffffffffff82169050919050565b60006103da826103af565b9050919050565b6103ea816103cf565b81146103f557600080fd5b50565b600081359050610407816103e1565b92915050565b60006020828403121561042357610422610347565b5b6000610431848285016103f8565b91505092915050565b6104438161034c565b82525050565b600060208201905061045e600083018461043a565b92915050565b600082825260208201905092915050565b7f496e73756666696369656e742062616c616e6365000000000000000000000000600082015250565b60006104ab601483610464565b91506104b682610475565b602082019050919050565b600060208201905081810360008301526104da8161049e565b9050919050565b7f4e487b7100000000000000000000000000000000000000000000000000000000600052601160045260246000fd5b600061051b8261034c565b91506105268361034c565b925082820390508181111561053e5761053d6104e1565b5b92915050565b7f4465706f73697420616d6f756e74206d7573742062652067726561746572207460008201527f68616e2030000000000000000000000000000000000000000000000000000000602082015250565b60006105a0602583610464565b91506105ab82610544565b604082019050919050565b600060208201905081810360008301526105cf81610593565b9050919050565b60006105e18261034c565b91506105ec8361034c565b9250828201905080821115610604576106036104e1565b5b9291505056fea2646970667358221220a62027ab67d274d65bd4ce1d0e318568ae4837b70d29790417624e2a06b37efc64736f6c63430008120033",
  "linkReferences": {},
  "deployedLinkReferences": {}
}