{
  "abi": [
    {
      "anonymous": false,
      "inputs": [
        {
          "indexed": false,
          "internalType": "uint256",
          "name": "id",
          "type": "uint256"
        },
        {
          "indexed": false,
          "internalType": "string",
          "name": "content",
          "type": "string"
        }
      ],
      "name": "NoteCreated",
      "type": "event"
    },
    {
      "anonymous": false,
      "inputs": [
        {
          "indexed": false,
          "internalType": "uint256",
          "name": "id",
          "type": "uint256"
        }
      ],
      "name": "NoteDeleted",
      "type": "event"
    },
    {
      "anonymous": false,
      "inputs": [
        {
          "indexed": false,
          "internalType": "uint256",
          "name": "id",
          "type": "uint256"
        },
        {
          "indexed": false,
          "internalType": "string",
          "name": "content",
          "type": "string"
        }
      ],
      "name": "NoteUpdated",
      "type": "event"
    },
    {
      "inputs": [
        {
          "internalType": "string",
          "name": "content",
          "type": "string"
        }
      ],
      "name": "create",
      "outputs": [],
      "stateMutability": "nonpayable",
      "type": "function"
    },
    {
      "inputs": [
        {
          "internalType": "uint256",
          "name": "id",
          "type": "uint256"
        }
      ],
      "name": "deleteNote",
      "outputs": [],
      "stateMutability": "nonpayable",
      "type": "function"
    },
    {
      "inputs": [
        {
          "internalType": "uint256",
          "name": "id",
          "type": "uint256"
        }
      ],
      "name": "read",
      "outputs": [
        {
          "internalType": "string",
          "name": "",
          "type": "string"
        }
      ],
      "stateMutability": "view",
      "type": "function"
    },
    {
      "inputs": [
        {
          "internalType": "uint256",
          "name": "id",
          "type": "uint256"
        },
        {
          "internalType": "string",
          "name": "content",
          "type": "string"
        }
      ],
      "name": "updateNote",
      "outputs": [],
      "stateMutability": "nonpayable",
      "type": "function"
    }
  ],
  "bytecode": {
    "object": "0x608060405234801561001057600080fd5b50610858806100206000396000f3fe608060405234801561001057600080fd5b506004361061004c5760003560e01c806349781ef914610051578063b6a46b3b14610066578063c47177f414610079578063ed2e5a971461008c575b600080fd5b61006461005f366004610586565b6100b5565b005b6100646100743660046105cd565b6101be565b61006461008736600461060a565b610262565b61009f61009a36600461060a565b610324565b6040516100ac9190610669565b60405180910390f35b336000908152600160205260408120905b815481101561017b57838282815481106100e2576100e2610683565b90600052602060002090600202016000015403610169578282828154811061010c5761010c610683565b906000526020600020906002020160010190816101299190610722565b507ff4a9990466472e087350221001dbdf2f5f11c2bcb1019e44fc8449ff3999eb94848460405161015b9291906107e2565b60405180910390a150505050565b80610173816107fb565b9150506100c6565b5060405162461bcd60e51b8152602060048201526013602482015272139bdd1948191bd95cc81b9bdd08195e1a5cdd606a1b604482015260640160405180910390fd5b6000805490806101cd836107fb565b90915550503360009081526001602081815260408084208151808301909252845482528183018681528154808601835591865292909420815160029095020193845590519092918201906102219082610722565b5050507f6550444ada089c308baa525c38c9b134b73b5b6a724c2276144d6b9ecd9f6fa0600054826040516102579291906107e2565b60405180910390a150565b336000908152600160205260408120905b815481101561017b578282828154811061028f5761028f610683565b90600052602060002090600202016000015403610312578181815481106102b8576102b8610683565b600091825260208220600290910201818155906102d8600183018261048d565b50506040518381527f89af6ba62ab348dc535a3187c267090f834c868a3820cd552a7110c3dc3eedb89060200160405180910390a1505050565b8061031c816107fb565b915050610273565b336000908152600160209081526040808320805482518185028101850190935280835260609493849084015b8282101561041e57838290600052602060002090600202016040518060400160405290816000820154815260200160018201805461038d90610699565b80601f01602080910402602001604051908101604052809291908181526020018280546103b990610699565b80156104065780601f106103db57610100808354040283529160200191610406565b820191906000526020600020905b8154815290600101906020018083116103e957829003601f168201915b50505050508152505081526020019060010190610350565b50505050905060005b815181101561017b578382828151811061044357610443610683565b6020026020010151600001510361047b5781818151811061046657610466610683565b60200260200101516020015192505050919050565b80610485816107fb565b915050610427565b50805461049990610699565b6000825580601f106104a9575050565b601f0160209004906000526020600020908101906104c791906104ca565b50565b5b808211156104df57600081556001016104cb565b5090565b634e487b7160e01b600052604160045260246000fd5b600082601f83011261050a57600080fd5b813567ffffffffffffffff80821115610525576105256104e3565b604051601f8301601f19908116603f0116810190828211818310171561054d5761054d6104e3565b8160405283815286602085880101111561056657600080fd5b836020870160208301376000602085830101528094505050505092915050565b6000806040838503121561059957600080fd5b82359150602083013567ffffffffffffffff8111156105b757600080fd5b6105c3858286016104f9565b9150509250929050565b6000602082840312156105df57600080fd5b813567ffffffffffffffff8111156105f657600080fd5b610602848285016104f9565b949350505050565b60006020828403121561061c57600080fd5b5035919050565b6000815180845260005b818110156106495760208185018101518683018201520161062d565b506000602082860101526020601f19601f83011685010191505092915050565b60208152600061067c6020830184610623565b9392505050565b634e487b7160e01b600052603260045260246000fd5b600181811c908216806106ad57607f821691505b6020821081036106cd57634e487b7160e01b600052602260045260246000fd5b50919050565b601f82111561071d57600081815260208120601f850160051c810160208610156106fa5750805b601f850160051c820191505b8181101561071957828155600101610706565b5050505b505050565b815167ffffffffffffffff81111561073c5761073c6104e3565b6107508161074a8454610699565b846106d3565b602080601f831160018114610785576000841561076d5750858301515b600019600386901b1c1916600185901b178555610719565b600085815260208120601f198616915b828110156107b457888601518255948401946001909101908401610795565b50858210156107d25787850151600019600388901b60f8161c191681555b5050505050600190811b01905550565b8281526040602082015260006106026040830184610623565b60006001820161081b57634e487b7160e01b600052601160045260246000fd5b506001019056fea2646970667358221220a0748fd630ec383452fcfca347d213a69fc1187b2b6419f166187ef1e79378f064736f6c63430008130033",
    "linkReferences": {}
  },
  "methodIdentifiers": {
    "create(string)": "b6a46b3b",
    "deleteNote(uint256)": "c47177f4",
    "read(uint256)": "ed2e5a97",
    "updateNote(uint256,string)": "49781ef9"
  },
  "id": 1
}