{
  "abi": [
    {
      "anonymous": false,
      "inputs": [
        {
          "indexed": true,
          "internalType": "address",
          "name": "user",
          "type": "address"
        },
        {
          "indexed": false,
          "internalType": "uint256",
          "name": "amount",
          "type": "uint256"
        }
      ],
      "name": "Deposited",
      "type": "event"
    },
    {
      "anonymous": false,
      "inputs": [
        {
          "indexed": true,
          "internalType": "address",
          "name": "user",
          "type": "address"
        },
        {
          "indexed": false,
          "internalType": "uint256",
          "name": "amount",
          "type": "uint256"
        }
      ],
      "name": "Withdrawn",
      "type": "event"
    },
    {
      "inputs": [],
      "name": "deposit",
      "outputs": [],
      "stateMutability": "payable",
      "type": "function"
    },
    {
      "inputs": [
        {
          "internalType": "address",
          "name": "user",
          "type": "address"
        }
      ],
      "name": "getBalance",
      "outputs": [
        {
          "internalType": "uint256",
          "name": "",
          "type": "uint256"
        }
      ],
      "stateMutability": "view",
      "type": "function"
    },
    {
      "inputs": [
        {
          "internalType": "uint256",
          "name": "amount",
          "type": "uint256"
        }
      ],
      "name": "withdraw",
      "outputs": [],
      "stateMutability": "nonpayable",
      "type": "function"
    }
  ],
  "bytecode": {
    "object": "0x608060405234801561001057600080fd5b5061030a806100206000396000f3fe6080604052600436106100345760003560e01c80632e1a7d4d14610039578063d0e30db01461005b578063f8b2cb4f14610063575b600080fd5b34801561004557600080fd5b50610059610054366004610249565b6100ab565b005b610059610190565b34801561006f57600080fd5b5061009961007e366004610262565b6001600160a01b031660009081526020819052604090205490565b60405190815260200160405180910390f35b336000908152602081905260409020548111156101065760405162461bcd60e51b8152602060048201526014602482015273496e73756666696369656e742062616c616e636560601b60448201526064015b60405180910390fd5b33600090815260208190526040812080548392906101259084906102a8565b9091555050604051339082156108fc029083906000818181858888f19350505050158015610157573d6000803e3d6000fd5b5060405181815233907f7084f5476618d8e60b11ef0d7d3f06914655adb8793e28ff7f018d4c76d505d59060200160405180910390a250565b600034116101ee5760405162461bcd60e51b815260206004820152602560248201527f4465706f73697420616d6f756e74206d75737420626520677265617465722074604482015264068616e20360dc1b60648201526084016100fd565b336000908152602081905260408120805434929061020d9084906102c1565b909155505060405134815233907f2da466a7b24304f47e87fa2e1e5a81b9831ce54fec19055ce277ca2f39ba42c49060200160405180910390a2565b60006020828403121561025b57600080fd5b5035919050565b60006020828403121561027457600080fd5b81356001600160a01b038116811461028b57600080fd5b9392505050565b634e487b7160e01b600052601160045260246000fd5b818103818111156102bb576102bb610292565b92915050565b808201808211156102bb576102bb61029256fea2646970667358221220143e151c340d7c680f751420fd37205ad9fddc68ccfeea7b349b2e4a84a7ec0564736f6c63430008130033",
    "linkReferences": {}
  },
  "methodIdentifiers": {
    "deposit()": "d0e30db0",
    "getBalance(address)": "f8b2cb4f",
    "withdraw(uint256)": "2e1a7d4d"
  },
  "id": 2
}