{
  "_format": "hh-sol-artifact-1",
  "contractName": "TimeLock",
  "sourceName": "contracts/Lock.sol",
  "abi": [
    {
      "inputs": [
        {
          "internalType": "uint256",
          "name": "_unlockTime",
          "type": "uint256"
        }
      ],
      "stateMutability": "nonpayable",
      "type": "constructor"
    },
    {
      "anonymous": false,
      "inputs": [
        {
          "indexed": true,
          "internalType": "address",
          "name": "sender",
          "type": "address"
        },
        {
          "indexed": false,
          "internalType": "uint256",
          "name": "amount",
          "type": "uint256"
        }
      ],
      "name": "Deposit",
      "type": "event"
    },
    {
      "anonymous": false,
      "inputs": [
        {
          "indexed": true,
          "internalType": "address",
          "name": "recipient",
          "type": "address"
        },
        {
          "indexed": false,
          "internalType": "uint256",
          "name": "amount",
          "type": "uint256"
        }
      ],
      "name": "Withdraw",
      "type": "event"
    },
    {
      "inputs": [],
      "name": "deposit",
      "outputs": [],
      "stateMutability": "payable",
      "type": "function"
    },
    {
      "inputs": [],
      "name": "getBalance",
      "outputs": [
        {
          "internalType": "uint256",
          "name": "",
          "type": "uint256"
        }
      ],
      "stateMutability": "view",
      "type": "function"
    },
    {
      "inputs": [],
      "name": "getCurrentTime",
      "outputs": [
        {
          "internalType": "uint256",
          "name": "",
          "type": "uint256"
        }
      ],
      "stateMutability": "view",
      "type": "function"
    },
    {
      "inputs": [],
      "name": "owner",
      "outputs": [
        {
          "internalType": "address",
          "name": "",
          "type": "address"
        }
      ],
      "stateMutability": "view",
      "type": "function"
    },
    {
      "inputs": [
        {
          "internalType": "uint256",
          "name": "_unlockTime",
          "type": "uint256"
        }
      ],
      "name": "setUnlockTime",
      "outputs": [],
      "stateMutability": "nonpayable",
      "type": "function"
    },
    {
      "inputs": [],
      "name": "unlockTime",
      "outputs": [
        {
          "internalType": "uint256",
          "name": "",
          "type": "uint256"
        }
      ],
      "stateMutability": "view",
      "type": "function"
    },
    {
      "inputs": [
        {
          "internalType": "address payable",
          "name": "recipient",
          "type": "address"
        },
        {
          "internalType": "uint256",
          "name": "amount",
          "type": "uint256"
        }
      ],
      "name": "withdraw",
      "outputs": [],
      "stateMutability": "nonpayable",
      "type": "function"
    }
  ],
  "bytecode": "0x608060405234801561001057600080fd5b50604051610861380380610861833981810160405281019061003291906100ba565b336000806101000a81548173ffffffffffffffffffffffffffffffffffffffff021916908373ffffffffffffffffffffffffffffffffffffffff16021790555080600181905550506100e7565b600080fd5b6000819050919050565b61009781610084565b81146100a257600080fd5b50565b6000815190506100b48161008e565b92915050565b6000602082840312156100d0576100cf61007f565b5b60006100de848285016100a5565b91505092915050565b61076b806100f66000396000f3fe6080604052600436106100705760003560e01c80638da5cb5b1161004e5780638da5cb5b146100f6578063d0e30db014610121578063dace45571461012b578063f3fef3a31461015457610070565b806312065fe014610075578063251c1aa3146100a057806329cb924d146100cb575b600080fd5b34801561008157600080fd5b5061008a61017d565b6040516100979190610467565b60405180910390f35b3480156100ac57600080fd5b506100b5610185565b6040516100c29190610467565b60405180910390f35b3480156100d757600080fd5b506100e061018b565b6040516100ed9190610467565b60405180910390f35b34801561010257600080fd5b5061010b610193565b60405161011891906104c3565b60405180910390f35b6101296101b7565b005b34801561013757600080fd5b50610152600480360381019061014d919061050f565b610207565b005b34801561016057600080fd5b5061017b6004803603810190610176919061057a565b61029f565b005b600047905090565b60015481565b600042905090565b60008054906101000a900473ffffffffffffffffffffffffffffffffffffffff1681565b3373ffffffffffffffffffffffffffffffffffffffff167fe1fffcc4923d04b559f4d29a8bfc6cda04eb5b0d3c460751c2402c5c5cc9109c346040516101fd9190610467565b60405180910390a2565b60008054906101000a900473ffffffffffffffffffffffffffffffffffffffff1673ffffffffffffffffffffffffffffffffffffffff163373ffffffffffffffffffffffffffffffffffffffff1614610295576040517f08c379a000000000000000000000000000000000000000000000000000000000815260040161028c9061063d565b60405180910390fd5b8060018190555050565b60008054906101000a900473ffffffffffffffffffffffffffffffffffffffff1673ffffffffffffffffffffffffffffffffffffffff163373ffffffffffffffffffffffffffffffffffffffff161461032d576040517f08c379a00000000000000000000000000000000000000000000000000000000081526004016103249061063d565b60405180910390fd5b600154421015610372576040517f08c379a0000000000000000000000000000000000000000000000000000000008152600401610369906106a9565b60405180910390fd5b804710156103b5576040517f08c379a00000000000000000000000000000000000000000000000000000000081526004016103ac90610715565b60405180910390fd5b8173ffffffffffffffffffffffffffffffffffffffff166108fc829081150290604051600060405180830381858888f193505050501580156103fb573d6000803e3d6000fd5b508173ffffffffffffffffffffffffffffffffffffffff167f884edad9ce6fa2440d8a54cc123490eb96d2768479d49ff9c7366125a9424364826040516104429190610467565b60405180910390a25050565b6000819050919050565b6104618161044e565b82525050565b600060208201905061047c6000830184610458565b92915050565b600073ffffffffffffffffffffffffffffffffffffffff82169050919050565b60006104ad82610482565b9050919050565b6104bd816104a2565b82525050565b60006020820190506104d860008301846104b4565b92915050565b600080fd5b6104ec8161044e565b81146104f757600080fd5b50565b600081359050610509816104e3565b92915050565b600060208284031215610525576105246104de565b5b6000610533848285016104fa565b91505092915050565b600061054782610482565b9050919050565b6105578161053c565b811461056257600080fd5b50565b6000813590506105748161054e565b92915050565b60008060408385031215610591576105906104de565b5b600061059f85828601610565565b92505060206105b0858286016104fa565b9150509250929050565b600082825260208201905092915050565b7f4f6e6c79206f776e65722063616e2063616c6c20746869732066756e6374696f60008201527f6e00000000000000000000000000000000000000000000000000000000000000602082015250565b60006106276021836105ba565b9150610632826105cb565b604082019050919050565b600060208201905081810360008301526106568161061a565b9050919050565b7f46756e647320617265207374696c6c206c6f636b656400000000000000000000600082015250565b60006106936016836105ba565b915061069e8261065d565b602082019050919050565b600060208201905081810360008301526106c281610686565b9050919050565b7f496e73756666696369656e742062616c616e6365000000000000000000000000600082015250565b60006106ff6014836105ba565b915061070a826106c9565b602082019050919050565b6000602082019050818103600083015261072e816106f2565b905091905056fea264697066735822122096bde2d7a7fbec382da16b0f253467393dc5c7be28ccacb96e463a2d11c8afea64736f6c63430008120033",
  "linkReferences": {},
  "deployedLinkReferences": {}
}