{
  "_format": "hh-sol-artifact-1",
  "contractName": "Notes",
  "sourceName": "contracts/Notes.sol",
  "abi": [
    {
      "anonymous": false,
      "inputs": [
        {
          "indexed": false,
          "internalType": "uint256",
          "name": "id",
          "type": "uint256"
        },
        {
          "indexed": false,
          "internalType": "string",
          "name": "content",
          "type": "string"
        }
      ],
      "name": "NoteCreated",
      "type": "event"
    },
    {
      "anonymous": false,
      "inputs": [
        {
          "indexed": false,
          "internalType": "uint256",
          "name": "id",
          "type": "uint256"
        }
      ],
      "name": "NoteDeleted",
      "type": "event"
    },
    {
      "anonymous": false,
      "inputs": [
        {
          "indexed": false,
          "internalType": "uint256",
          "name": "id",
          "type": "uint256"
        },
        {
          "indexed": false,
          "internalType": "string",
          "name": "content",
          "type": "string"
        }
      ],
      "name": "NoteUpdated",
      "type": "event"
    },
    {
      "inputs": [
        {
          "internalType": "string",
          "name": "content",
          "type": "string"
        }
      ],
      "name": "create",
      "outputs": [],
      "stateMutability": "nonpayable",
      "type": "function"
    },
    {
      "inputs": [
        {
          "internalType": "uint256",
          "name": "id",
          "type": "uint256"
        }
      ],
      "name": "deleteNote",
      "outputs": [],
      "stateMutability": "nonpayable",
      "type": "function"
    },
    {
      "inputs": [
        {
          "internalType": "uint256",
          "name": "id",
          "type": "uint256"
        }
      ],
      "name": "read",
      "outputs": [
        {
          "internalType": "string",
          "name": "",
          "type": "string"
        }
      ],
      "stateMutability": "view",
      "type": "function"
    },
    {
      "inputs": [
        {
          "internalType": "uint256",
          "name": "id",
          "type": "uint256"
        },
        {
          "internalType": "string",
          "name": "content",
          "type": "string"
        }
      ],
      "name": "updateNote",
      "outputs": [],
      "stateMutability": "nonpayable",
      "type": "function"
    }
  ],
  "bytecode": "0x608060405234801561001057600080fd5b50610e1a806100206000396000f3fe608060405234801561001057600080fd5b506004361061004c5760003560e01c806349781ef914610051578063b6a46b3b1461006d578063c47177f414610089578063ed2e5a97146100a5575b600080fd5b61006b60048036038101906100669190610827565b6100d5565b005b61008760048036038101906100829190610883565b610217565b005b6100a3600480360381019061009e91906108cc565b61030d565b005b6100bf60048036038101906100ba91906108cc565b610456565b6040516100cc9190610978565b60405180910390f35b6000600160003373ffffffffffffffffffffffffffffffffffffffff1673ffffffffffffffffffffffffffffffffffffffff168152602001908152602001600020905060005b81805490508110156101d7578382828154811061013b5761013a61099a565b5b906000526020600020906002020160000154036101c457828282815481106101665761016561099a565b5b906000526020600020906002020160010190816101839190610bd5565b507ff4a9990466472e087350221001dbdf2f5f11c2bcb1019e44fc8449ff3999eb9484846040516101b5929190610cb6565b60405180910390a15050610213565b80806101cf90610d15565b91505061011b565b506040517f08c379a000000000000000000000000000000000000000000000000000000000815260040161020a90610da9565b60405180910390fd5b5050565b60008081548092919061022990610d15565b9190505550600160003373ffffffffffffffffffffffffffffffffffffffff1673ffffffffffffffffffffffffffffffffffffffff168152602001908152602001600020604051806040016040528060005481526020018381525090806001815401808255809150506001900390600052602060002090600202016000909190919091506000820151816000015560208201518160010190816102cc9190610bd5565b5050507f6550444ada089c308baa525c38c9b134b73b5b6a724c2276144d6b9ecd9f6fa060005482604051610302929190610cb6565b60405180910390a150565b6000600160003373ffffffffffffffffffffffffffffffffffffffff1673ffffffffffffffffffffffffffffffffffffffff168152602001908152602001600020905060005b818054905081101561041757828282815481106103735761037261099a565b5b906000526020600020906002020160000154036104045781818154811061039d5761039c61099a565b5b90600052602060002090600202016000808201600090556001820160006103c4919061063a565b50507f89af6ba62ab348dc535a3187c267090f834c868a3820cd552a7110c3dc3eedb8836040516103f59190610dc9565b60405180910390a15050610453565b808061040f90610d15565b915050610353565b506040517f08c379a000000000000000000000000000000000000000000000000000000000815260040161044a90610da9565b60405180910390fd5b50565b60606000600160003373ffffffffffffffffffffffffffffffffffffffff1673ffffffffffffffffffffffffffffffffffffffff168152602001908152602001600020805480602002602001604051908101604052809291908181526020016000905b828210156105875783829060005260206000209060020201604051806040016040529081600082015481526020016001820180546104f6906109f8565b80601f0160208091040260200160405190810160405280929190818152602001828054610522906109f8565b801561056f5780601f106105445761010080835404028352916020019161056f565b820191906000526020600020905b81548152906001019060200180831161055257829003601f168201915b505050505081525050815260200190600101906104b9565b50505050905060005b81518110156105f957838282815181106105ad576105ac61099a565b5b602002602001015160000151036105e6578181815181106105d1576105d061099a565b5b60200260200101516020015192505050610635565b80806105f190610d15565b915050610590565b506040517f08c379a000000000000000000000000000000000000000000000000000000000815260040161062c90610da9565b60405180910390fd5b919050565b508054610646906109f8565b6000825580601f106106585750610677565b601f016020900490600052602060002090810190610676919061067a565b5b50565b5b8082111561069357600081600090555060010161067b565b5090565b6000604051905090565b600080fd5b600080fd5b6000819050919050565b6106be816106ab565b81146106c957600080fd5b50565b6000813590506106db816106b5565b92915050565b600080fd5b600080fd5b6000601f19601f8301169050919050565b7f4e487b7100000000000000000000000000000000000000000000000000000000600052604160045260246000fd5b610734826106eb565b810181811067ffffffffffffffff82111715610753576107526106fc565b5b80604052505050565b6000610766610697565b9050610772828261072b565b919050565b600067ffffffffffffffff821115610792576107916106fc565b5b61079b826106eb565b9050602081019050919050565b82818337600083830152505050565b60006107ca6107c584610777565b61075c565b9050828152602081018484840111156107e6576107e56106e6565b5b6107f18482856107a8565b509392505050565b600082601f83011261080e5761080d6106e1565b5b813561081e8482602086016107b7565b91505092915050565b6000806040838503121561083e5761083d6106a1565b5b600061084c858286016106cc565b925050602083013567ffffffffffffffff81111561086d5761086c6106a6565b5b610879858286016107f9565b9150509250929050565b600060208284031215610899576108986106a1565b5b600082013567ffffffffffffffff8111156108b7576108b66106a6565b5b6108c3848285016107f9565b91505092915050565b6000602082840312156108e2576108e16106a1565b5b60006108f0848285016106cc565b91505092915050565b600081519050919050565b600082825260208201905092915050565b60005b83811015610933578082015181840152602081019050610918565b60008484015250505050565b600061094a826108f9565b6109548185610904565b9350610964818560208601610915565b61096d816106eb565b840191505092915050565b60006020820190508181036000830152610992818461093f565b905092915050565b7f4e487b7100000000000000000000000000000000000000000000000000000000600052603260045260246000fd5b7f4e487b7100000000000000000000000000000000000000000000000000000000600052602260045260246000fd5b60006002820490506001821680610a1057607f821691505b602082108103610a2357610a226109c9565b5b50919050565b60008190508160005260206000209050919050565b60006020601f8301049050919050565b600082821b905092915050565b600060088302610a8b7fffffffffffffffffffffffffffffffffffffffffffffffffffffffffffffffff82610a4e565b610a958683610a4e565b95508019841693508086168417925050509392505050565b6000819050919050565b6000610ad2610acd610ac8846106ab565b610aad565b6106ab565b9050919050565b6000819050919050565b610aec83610ab7565b610b00610af882610ad9565b848454610a5b565b825550505050565b600090565b610b15610b08565b610b20818484610ae3565b505050565b5b81811015610b4457610b39600082610b0d565b600181019050610b26565b5050565b601f821115610b8957610b5a81610a29565b610b6384610a3e565b81016020851015610b72578190505b610b86610b7e85610a3e565b830182610b25565b50505b505050565b600082821c905092915050565b6000610bac60001984600802610b8e565b1980831691505092915050565b6000610bc58383610b9b565b9150826002028217905092915050565b610bde826108f9565b67ffffffffffffffff811115610bf757610bf66106fc565b5b610c0182546109f8565b610c0c828285610b48565b600060209050601f831160018114610c3f5760008415610c2d578287015190505b610c378582610bb9565b865550610c9f565b601f198416610c4d86610a29565b60005b82811015610c7557848901518255600182019150602085019450602081019050610c50565b86831015610c925784890151610c8e601f891682610b9b565b8355505b6001600288020188555050505b505050505050565b610cb0816106ab565b82525050565b6000604082019050610ccb6000830185610ca7565b8181036020830152610cdd818461093f565b90509392505050565b7f4e487b7100000000000000000000000000000000000000000000000000000000600052601160045260246000fd5b6000610d20826106ab565b91507fffffffffffffffffffffffffffffffffffffffffffffffffffffffffffffffff8203610d5257610d51610ce6565b5b600182019050919050565b7f4e6f746520646f6573206e6f7420657869737400000000000000000000000000600082015250565b6000610d93601383610904565b9150610d9e82610d5d565b602082019050919050565b60006020820190508181036000830152610dc281610d86565b9050919050565b6000602082019050610dde6000830184610ca7565b9291505056fea2646970667358221220d405facf99341ac2b8ee70187abf5ae272b0be61beb4518cd3218bdadf0be09064736f6c63430008120033",
  "linkReferences": {},
  "deployedLinkReferences": {}
}